{
  "contractName": "DexPool",
  "abi": [
    {
      "inputs": [
        {
          "internalType": "address",
          "name": "_tokenOfPool",
          "type": "address"
        },
        {
          "internalType": "address",
          "name": "_myContract",
          "type": "address"
        },
        {
          "internalType": "address",
          "name": "_util",
          "type": "address"
        }
      ],
      "stateMutability": "nonpayable",
      "type": "constructor"
    },
    {
      "anonymous": false,
      "inputs": [
        {
          "indexed": true,
          "internalType": "address",
          "name": "previousOwner",
          "type": "address"
        },
        {
          "indexed": true,
          "internalType": "address",
          "name": "newOwner",
          "type": "address"
        }
      ],
      "name": "OwnershipTransferred",
      "type": "event"
    },
    {
      "anonymous": false,
      "inputs": [
        {
          "indexed": false,
          "internalType": "bool",
          "name": "success",
          "type": "bool"
        }
      ],
      "name": "Receive",
      "type": "event"
    },
    {
      "inputs": [],
      "name": "myContract",
      "outputs": [
        {
          "internalType": "address",
          "name": "",
          "type": "address"
        }
      ],
      "stateMutability": "view",
      "type": "function",
      "constant": true
    },
    {
      "inputs": [],
      "name": "owner",
      "outputs": [
        {
          "internalType": "address",
          "name": "",
          "type": "address"
        }
      ],
      "stateMutability": "view",
      "type": "function",
      "constant": true
    },
    {
      "inputs": [],
      "name": "renounceOwnership",
      "outputs": [],
      "stateMutability": "nonpayable",
      "type": "function"
    },
    {
      "inputs": [],
      "name": "test",
      "outputs": [
        {
          "internalType": "uint256",
          "name": "",
          "type": "uint256"
        }
      ],
      "stateMutability": "view",
      "type": "function",
      "constant": true
    },
    {
      "inputs": [
        {
          "internalType": "address",
          "name": "newOwner",
          "type": "address"
        }
      ],
      "name": "transferOwnership",
      "outputs": [],
      "stateMutability": "nonpayable",
      "type": "function"
    },
    {
      "inputs": [],
      "name": "util",
      "outputs": [
        {
          "internalType": "address",
          "name": "",
          "type": "address"
        }
      ],
      "stateMutability": "view",
      "type": "function",
      "constant": true
    },
    {
      "inputs": [
        {
          "internalType": "uint256",
          "name": "amount",
          "type": "uint256"
        }
      ],
      "name": "swapDeposit",
      "outputs": [],
      "stateMutability": "nonpayable",
      "type": "function"
    },
    {
      "inputs": [
        {
          "internalType": "bytes32",
          "name": "requestId",
          "type": "bytes32"
        },
        {
          "internalType": "bytes32",
          "name": "tx_fromNet2",
          "type": "bytes32"
        }
      ],
      "name": "setPendingRequestsDone",
      "outputs": [],
      "stateMutability": "nonpayable",
      "type": "function"
    },
    {
      "inputs": [
        {
          "internalType": "uint256",
          "name": "val",
          "type": "uint256"
        }
      ],
      "name": "_setTest",
      "outputs": [],
      "stateMutability": "nonpayable",
      "type": "function"
    },
    {
      "inputs": [
        {
          "internalType": "bytes",
          "name": "b",
          "type": "bytes"
        }
      ],
      "name": "receiver",
      "outputs": [],
      "stateMutability": "nonpayable",
      "type": "function"
    }
  ],
  "bytecode": "0x608060405234801561001057600080fd5b506040516111903803806111908339818101604052606081101561003357600080fd5b8101908080519060200190929190805190602001909291908051906020019092919050505060006100686101d160201b60201c565b9050806000806101000a81548173ffffffffffffffffffffffffffffffffffffffff021916908373ffffffffffffffffffffffffffffffffffffffff1602179055508073ffffffffffffffffffffffffffffffffffffffff16600073ffffffffffffffffffffffffffffffffffffffff167f8be0079c531659141344cd1fd0a4f28419497f9722a3daafe3b4186f6b6457e060405160405180910390a35082600560006101000a81548173ffffffffffffffffffffffffffffffffffffffff021916908373ffffffffffffffffffffffffffffffffffffffff16021790555081600260006101000a81548173ffffffffffffffffffffffffffffffffffffffff021916908373ffffffffffffffffffffffffffffffffffffffff16021790555080600360006101000a81548173ffffffffffffffffffffffffffffffffffffffff021916908373ffffffffffffffffffffffffffffffffffffffff1602179055505050506101d9565b600033905090565b610fa8806101e86000396000f3fe608060405234801561001057600080fd5b506004361061009e5760003560e01c8063982975be11610066578063982975be14610234578063bc33657a14610262578063f2fde38b146102ac578063f8a8fd6d146102f0578063fec102801461030e5761009e565b80633098b954146100a3578063715018a6146100db5780637588f7fc146100e55780638da5cb5b146101a057806395613875146101ea575b600080fd5b6100d9600480360360408110156100b957600080fd5b81019080803590602001909291908035906020019092919050505061033c565b005b6100e361041b565b005b61019e600480360360208110156100fb57600080fd5b810190808035906020019064010000000081111561011857600080fd5b82018360208201111561012a57600080fd5b8035906020019184600183028401116401000000008311171561014c57600080fd5b91908080601f016020809104026020016040519081016040528093929190818152602001838380828437600081840152601f19601f8201169050808301925050505050505091929192905050506105a3565b005b6101a8610814565b604051808273ffffffffffffffffffffffffffffffffffffffff1673ffffffffffffffffffffffffffffffffffffffff16815260200191505060405180910390f35b6101f261083d565b604051808273ffffffffffffffffffffffffffffffffffffffff1673ffffffffffffffffffffffffffffffffffffffff16815260200191505060405180910390f35b6102606004803603602081101561024a57600080fd5b8101908080359060200190929190505050610863565b005b61026a610c38565b604051808273ffffffffffffffffffffffffffffffffffffffff1673ffffffffffffffffffffffffffffffffffffffff16815260200191505060405180910390f35b6102ee600480360360208110156102c257600080fd5b81019080803573ffffffffffffffffffffffffffffffffffffffff169060200190929190505050610c5e565b005b6102f8610e6b565b6040518082815260200191505060405180910390f35b61033a6004803603602081101561032457600080fd5b8101908080359060200190929190505050610e71565b005b600260009054906101000a900473ffffffffffffffffffffffffffffffffffffffff1673ffffffffffffffffffffffffffffffffffffffff163373ffffffffffffffffffffffffffffffffffffffff16146103ff576040517f08c379a000000000000000000000000000000000000000000000000000000000815260040180806020018281038252601d8152602001807f4f4e4c59204345525441494e20434841494e4c494e4b20434c49454e5400000081525060200191505060405180910390fd5b8060046000848152602001908152602001600020819055505050565b610423610f44565b73ffffffffffffffffffffffffffffffffffffffff166000809054906101000a900473ffffffffffffffffffffffffffffffffffffffff1673ffffffffffffffffffffffffffffffffffffffff16146104e4576040517f08c379a00000000000000000000000000000000000000000000000000000000081526004018080602001828103825260208152602001807f4f776e61626c653a2063616c6c6572206973206e6f7420746865206f776e657281525060200191505060405180910390fd5b600073ffffffffffffffffffffffffffffffffffffffff166000809054906101000a900473ffffffffffffffffffffffffffffffffffffffff1673ffffffffffffffffffffffffffffffffffffffff167f8be0079c531659141344cd1fd0a4f28419497f9722a3daafe3b4186f6b6457e060405160405180910390a360008060006101000a81548173ffffffffffffffffffffffffffffffffffffffff021916908373ffffffffffffffffffffffffffffffffffffffff160217905550565b6105ab610f44565b73ffffffffffffffffffffffffffffffffffffffff166000809054906101000a900473ffffffffffffffffffffffffffffffffffffffff1673ffffffffffffffffffffffffffffffffffffffff161461066c576040517f08c379a00000000000000000000000000000000000000000000000000000000081526004018080602001828103825260208152602001807f4f776e61626c653a2063616c6c6572206973206e6f7420746865206f776e657281525060200191505060405180910390fd5b600060603073ffffffffffffffffffffffffffffffffffffffff16836040518082805190602001908083835b602083106106bb5780518252602082019150602081019050602083039250610698565b6001836020036101000a0380198251168184511680821785525050505050509050019150506000604051808303816000865af19150503d806000811461071d576040519150601f19603f3d011682016040523d82523d6000602084013e610722565b606091505b50915091508180156107625750600081511480610761575080806020019051602081101561074f57600080fd5b81019080805190602001909291905050505b5b6107d4576040517f08c379a00000000000000000000000000000000000000000000000000000000081526004018080602001828103825260068152602001807f4641494c4544000000000000000000000000000000000000000000000000000081525060200191505060405180910390fd5b7fae6da96d2ad064f22619554707f11e8f4088acdbeaa51240a87ebd4285fdd9ba82604051808215151515815260200191505060405180910390a1505050565b60008060009054906101000a900473ffffffffffffffffffffffffffffffffffffffff16905090565b600360009054906101000a900473ffffffffffffffffffffffffffffffffffffffff1681565b60606040518060400160405280601181526020017f5f736574546573742875696e7432353629000000000000000000000000000000815250805190602001208260405160240180828152602001915050604051602081830303815290604052907bffffffffffffffffffffffffffffffffffffffffffffffffffffffff19166020820180517bffffffffffffffffffffffffffffffffffffffffffffffffffffffff838183161783525050505090506000600260009054906101000a900473ffffffffffffffffffffffffffffffffffffffff1673ffffffffffffffffffffffffffffffffffffffff166349cf3daa600360009054906101000a900473ffffffffffffffffffffffffffffffffffffffff1673ffffffffffffffffffffffffffffffffffffffff16637d520c22856040518263ffffffff1660e01b81526004018080602001828103825283818151815260200191508051906020019080838360005b838110156109e05780820151818401526020810190506109c5565b50505050905090810190601f168015610a0d5780820380516001836020036101000a031916815260200191505b509250505060006040518083038186803b158015610a2a57600080fd5b505afa158015610a3e573d6000803e3d6000fd5b505050506040513d6000823e3d601f19601f820116820180604052506020811015610a6857600080fd5b8101908080516040519392919084640100000000821115610a8857600080fd5b83820191506020820185811115610a9e57600080fd5b8251866001820283011164010000000082111715610abb57600080fd5b8083526020830192505050908051906020019080838360005b83811015610aef578082015181840152602081019050610ad4565b50505050905090810190601f168015610b1c5780820380516001836020036101000a031916815260200191505b506040525050506040518263ffffffff1660e01b81526004018080602001828103825283818151815260200191508051906020019080838360005b83811015610b72578082015181840152602081019050610b57565b50505050905090810190601f168015610b9f5780820380516001836020036101000a031916815260200191505b5092505050602060405180830381600087803b158015610bbe57600080fd5b505af1158015610bd2573d6000803e3d6000fd5b505050506040513d6020811015610be857600080fd5b810190808051906020019092919050505090507f30783000000000000000000000000000000000000000000000000000000000006004600083815260200190815260200160002081905550505050565b600260009054906101000a900473ffffffffffffffffffffffffffffffffffffffff1681565b610c66610f44565b73ffffffffffffffffffffffffffffffffffffffff166000809054906101000a900473ffffffffffffffffffffffffffffffffffffffff1673ffffffffffffffffffffffffffffffffffffffff1614610d27576040517f08c379a00000000000000000000000000000000000000000000000000000000081526004018080602001828103825260208152602001807f4f776e61626c653a2063616c6c6572206973206e6f7420746865206f776e657281525060200191505060405180910390fd5b600073ffffffffffffffffffffffffffffffffffffffff168173ffffffffffffffffffffffffffffffffffffffff161415610dad576040517f08c379a0000000000000000000000000000000000000000000000000000000008152600401808060200182810382526026815260200180610f4d6026913960400191505060405180910390fd5b8073ffffffffffffffffffffffffffffffffffffffff166000809054906101000a900473ffffffffffffffffffffffffffffffffffffffff1673ffffffffffffffffffffffffffffffffffffffff167f8be0079c531659141344cd1fd0a4f28419497f9722a3daafe3b4186f6b6457e060405160405180910390a3806000806101000a81548173ffffffffffffffffffffffffffffffffffffffff021916908373ffffffffffffffffffffffffffffffffffffffff16021790555050565b60015481565b610e79610f44565b73ffffffffffffffffffffffffffffffffffffffff166000809054906101000a900473ffffffffffffffffffffffffffffffffffffffff1673ffffffffffffffffffffffffffffffffffffffff1614610f3a576040517f08c379a00000000000000000000000000000000000000000000000000000000081526004018080602001828103825260208152602001807f4f776e61626c653a2063616c6c6572206973206e6f7420746865206f776e657281525060200191505060405180910390fd5b8060018190555050565b60003390509056fe4f776e61626c653a206e6577206f776e657220697320746865207a65726f2061646472657373a264697066735822122022b5069aa13142b48d2d40eb6c91cce0b704826e29ccbdd353832d1a5eba4ab964736f6c63430006090033",
  "immutableReferences": {},
  "source": "pragma solidity >=0.4.21 < 0.7.0;\n\nimport \"@openzeppelin/contracts/access/Ownable.sol\";\nimport \"@openzeppelin/contracts/token/ERC20/IERC20.sol\";\nimport \"./MyContract.sol\";\nimport \"./IHexstring.sol\";\n\n\ncontract DexPool is Ownable {\n\n  event Receive(bool success);\n\n  uint256 public test;\n  address public myContract;\n  address public util;\n\n  // requestId => tx (callback, where tx.status === true)\n  mapping(bytes32 => bytes32) private pendingRequests;\n\n  address tokenOfPool;\n\n  constructor(address _tokenOfPool, address _myContract, address _util) public {\n\n  \ttokenOfPool = _tokenOfPool;\n  \tmyContract  = _myContract;\n    util        = _util;\n\n  }\n\n  /** \n   * The part of process 'swap'\n   */\n  function swapDeposit(uint256 amount) external {\n\n      //TODO\n      // require(IERC20(tokenOfPool).balanceOf(address(this)) >= amount, \"INSUFFICIENT AMOUNT IN SWAPDEPOSIT\");\n      // //перевод usdc c адреса alice на адрес пула в сети ethereum (перед этим она должна сделать approve)\n      // IERC20(tokenOfPool).transferFrom(msg.sender, address(this), amount);\n\n     //prepare\n     bytes memory out = abi.encodeWithSelector(bytes4(keccak256(bytes('_setTest(uint256)'))), amount);\n\n     //byte to string and send to Net2\n     bytes32 requestId = MyContract(myContract).transmit(IHexstring(util).bytesToHexString(out));\n\n     //save requestId for bind with callback requestId -> this is approve consistaency !!!!\n     // hex\"0x0\" - in pending\n     pendingRequests[requestId] = \"0x0\";\n     \n   }\n\n   function setPendingRequestsDone(bytes32 requestId ,bytes32 tx_fromNet2) public {\n\n      require(msg.sender == myContract, \"ONLY CERTAIN CHAINLINK CLIENT\");\n\n      // transation on overside is executed. tx.status = true\n      pendingRequests[requestId] = tx_fromNet2;\n\n   }\n\n  /** \n   * The part of process 'swap'\n   * NOTE: permission onlyOwner\n   /\n  function swapWithdraw(address recipient,uint256 amount) onlyOwner external {\n\n      //WARN рассмотреть негативный сценарий где данная функция вызывается первой из всего процесса.\n\n\n      require(IERC20(tokenOfPool).balanceOf(address(this)) >= amount, \"INSUFFICIENT AMOUNT IN SWAPWITHDRAW\");\n\n      //перевод BNB c адреса пула на адрес alice в сети Binance\n      IERC20(tokenOfPool).transfer(recipient, amount);\n\n      //TODO\n      //createRequestTo(...); - на случай коллбэка о событии транзакции в другую \n\n   }*/\n\n\n\n   /*\n    *\n    *  ==========================FOR INCOMING FROM OVER SIDE =======================================\n    */\n\n\n  function _setTest(uint256 val) public onlyOwner {\n    test = val;\n  }\n\n\n /**\n  * Receive invoke from other network through external adapter\n  *\n  * NOTE: owner - it's deployer address. \n  */\n  function receiver(bytes memory b) external onlyOwner {\n    (bool success, bytes memory data) = address(this).call(b);\n    require(success && (data.length == 0 || abi.decode(data, (bool))), 'FAILED');\n\n    emit Receive(success);\n  }\n\n\n\n\n\n\n}",
  "sourcePath": "/mnt/hdd1/git/blockchain/digiu.lab/contracts/DexPool.sol",
  "compiler": {
    "name": "solc",
    "version": "0.6.9+commit.3e3065ac.Emscripten.clang"
  },
  "schemaVersion": "3.3.3",
  "updatedAt": "2021-01-18T18:42:39.786Z",
  "networkType": "ethereum",
  "devdoc": {
    "methods": {
      "owner()": {
        "details": "Returns the address of the current owner."
      },
      "renounceOwnership()": {
        "details": "Leaves the contract without owner. It will not be possible to call `onlyOwner` functions anymore. Can only be called by the current owner. NOTE: Renouncing ownership will leave the contract without an owner, thereby removing any functionality that is only available to the owner."
      },
      "transferOwnership(address)": {
        "details": "Transfers ownership of the contract to a new account (`newOwner`). Can only be called by the current owner."
      }
    }
  },
  "userdoc": {
    "methods": {
      "_setTest(uint256)": {
        "notice": "The part of process 'swap' NOTE: permission onlyOwner / function swapWithdraw(address recipient,uint256 amount) onlyOwner external { //WARN рассмотреть негативный сценарий где данная функция вызывается первой из всего процесса. require(IERC20(tokenOfPool).balanceOf(address(this)) >= amount, \"INSUFFICIENT AMOUNT IN SWAPWITHDRAW\"); //перевод BNB c адреса пула на адрес alice в сети Binance IERC20(tokenOfPool).transfer(recipient, amount); //TODO //createRequestTo(...); - на случай коллбэка о событии транзакции в другую  }"
      },
      "receiver(bytes)": {
        "notice": "Receive invoke from other network through external adapter NOTE: owner - it's deployer address. "
      },
      "swapDeposit(uint256)": {
        "notice": "The part of process 'swap'"
      }
    }
  }
}